{
  "contractName": "RentalHomeContract",
  "abi": [
    {
      "inputs": [
        {
          "internalType": "address",
          "name": "",
          "type": "address"
        },
        {
          "internalType": "uint256",
          "name": "",
          "type": "uint256"
        }
      ],
      "name": "landlordAgreements",
      "outputs": [
        {
          "internalType": "uint256",
          "name": "home_id",
          "type": "uint256"
        },
        {
          "internalType": "uint256",
          "name": "price",
          "type": "uint256"
        },
        {
          "internalType": "string",
          "name": "price_type",
          "type": "string"
        },
        {
          "internalType": "string",
          "name": "tenant_mobile",
          "type": "string"
        },
        {
          "internalType": "string",
          "name": "tenant_national_code",
          "type": "string"
        },
        {
          "internalType": "string",
          "name": "landlord_mobile",
          "type": "string"
        },
        {
          "internalType": "string",
          "name": "landlord_national_code",
          "type": "string"
        },
        {
          "internalType": "address",
          "name": "tenant_public_key",
          "type": "address"
        },
        {
          "internalType": "address",
          "name": "landlord_public_key",
          "type": "address"
        },
        {
          "internalType": "enum RentalHomeContract.ContractState",
          "name": "state",
          "type": "uint8"
        },
        {
          "internalType": "bool",
          "name": "tenantSigned",
          "type": "bool"
        },
        {
          "internalType": "bool",
          "name": "landlordSigned",
          "type": "bool"
        }
      ],
      "stateMutability": "view",
      "type": "function",
      "constant": true
    },
    {
      "inputs": [
        {
          "internalType": "address",
          "name": "",
          "type": "address"
        },
        {
          "internalType": "uint256",
          "name": "",
          "type": "uint256"
        }
      ],
      "name": "tenantAgreements",
      "outputs": [
        {
          "internalType": "uint256",
          "name": "home_id",
          "type": "uint256"
        },
        {
          "internalType": "uint256",
          "name": "price",
          "type": "uint256"
        },
        {
          "internalType": "string",
          "name": "price_type",
          "type": "string"
        },
        {
          "internalType": "string",
          "name": "tenant_mobile",
          "type": "string"
        },
        {
          "internalType": "string",
          "name": "tenant_national_code",
          "type": "string"
        },
        {
          "internalType": "string",
          "name": "landlord_mobile",
          "type": "string"
        },
        {
          "internalType": "string",
          "name": "landlord_national_code",
          "type": "string"
        },
        {
          "internalType": "address",
          "name": "tenant_public_key",
          "type": "address"
        },
        {
          "internalType": "address",
          "name": "landlord_public_key",
          "type": "address"
        },
        {
          "internalType": "enum RentalHomeContract.ContractState",
          "name": "state",
          "type": "uint8"
        },
        {
          "internalType": "bool",
          "name": "tenantSigned",
          "type": "bool"
        },
        {
          "internalType": "bool",
          "name": "landlordSigned",
          "type": "bool"
        }
      ],
      "stateMutability": "view",
      "type": "function",
      "constant": true
    },
    {
      "inputs": [
        {
          "internalType": "uint256",
          "name": "_home_id",
          "type": "uint256"
        },
        {
          "internalType": "uint256",
          "name": "_price",
          "type": "uint256"
        },
        {
          "internalType": "string",
          "name": "_price_type",
          "type": "string"
        },
        {
          "internalType": "string",
          "name": "_tenant_mobile",
          "type": "string"
        },
        {
          "internalType": "string",
          "name": "_tenant_national_code",
          "type": "string"
        },
        {
          "internalType": "string",
          "name": "_landlord_mobile",
          "type": "string"
        },
        {
          "internalType": "string",
          "name": "_landlord_national_code",
          "type": "string"
        },
        {
          "internalType": "address",
          "name": "_tenant_public_key",
          "type": "address"
        },
        {
          "internalType": "address",
          "name": "_landlord_public_key",
          "type": "address"
        }
      ],
      "name": "setRentalAgreement",
      "outputs": [],
      "stateMutability": "nonpayable",
      "type": "function"
    },
    {
      "inputs": [
        {
          "internalType": "address",
          "name": "_tenant_public_key",
          "type": "address"
        },
        {
          "internalType": "uint256",
          "name": "_index",
          "type": "uint256"
        }
      ],
      "name": "signContractAsTenant",
      "outputs": [],
      "stateMutability": "nonpayable",
      "type": "function"
    },
    {
      "inputs": [
        {
          "internalType": "address",
          "name": "_landlord_public_key",
          "type": "address"
        },
        {
          "internalType": "uint256",
          "name": "_index",
          "type": "uint256"
        }
      ],
      "name": "signContractAsLandlord",
      "outputs": [],
      "stateMutability": "nonpayable",
      "type": "function"
    },
    {
      "inputs": [
        {
          "internalType": "address",
          "name": "_landlord_public_key",
          "type": "address"
        },
        {
          "internalType": "uint256",
          "name": "_index",
          "type": "uint256"
        }
      ],
      "name": "terminateContractAsLandlord",
      "outputs": [],
      "stateMutability": "nonpayable",
      "type": "function"
    },
    {
      "inputs": [
        {
          "internalType": "address",
          "name": "_tenantPublicKey",
          "type": "address"
        }
      ],
      "name": "getAgreementsByTenant",
      "outputs": [
        {
          "components": [
            {
              "internalType": "uint256",
              "name": "home_id",
              "type": "uint256"
            },
            {
              "internalType": "uint256",
              "name": "price",
              "type": "uint256"
            },
            {
              "internalType": "string",
              "name": "price_type",
              "type": "string"
            },
            {
              "internalType": "string",
              "name": "tenant_mobile",
              "type": "string"
            },
            {
              "internalType": "string",
              "name": "tenant_national_code",
              "type": "string"
            },
            {
              "internalType": "string",
              "name": "landlord_mobile",
              "type": "string"
            },
            {
              "internalType": "string",
              "name": "landlord_national_code",
              "type": "string"
            },
            {
              "internalType": "address",
              "name": "tenant_public_key",
              "type": "address"
            },
            {
              "internalType": "address",
              "name": "landlord_public_key",
              "type": "address"
            },
            {
              "internalType": "enum RentalHomeContract.ContractState",
              "name": "state",
              "type": "uint8"
            },
            {
              "internalType": "bool",
              "name": "tenantSigned",
              "type": "bool"
            },
            {
              "internalType": "bool",
              "name": "landlordSigned",
              "type": "bool"
            }
          ],
          "internalType": "struct RentalHomeContract.RentalAgreement[]",
          "name": "",
          "type": "tuple[]"
        }
      ],
      "stateMutability": "view",
      "type": "function",
      "constant": true
    },
    {
      "inputs": [
        {
          "internalType": "address",
          "name": "_landlordPublicKey",
          "type": "address"
        }
      ],
      "name": "getAgreementsByLandlord",
      "outputs": [
        {
          "components": [
            {
              "internalType": "uint256",
              "name": "home_id",
              "type": "uint256"
            },
            {
              "internalType": "uint256",
              "name": "price",
              "type": "uint256"
            },
            {
              "internalType": "string",
              "name": "price_type",
              "type": "string"
            },
            {
              "internalType": "string",
              "name": "tenant_mobile",
              "type": "string"
            },
            {
              "internalType": "string",
              "name": "tenant_national_code",
              "type": "string"
            },
            {
              "internalType": "string",
              "name": "landlord_mobile",
              "type": "string"
            },
            {
              "internalType": "string",
              "name": "landlord_national_code",
              "type": "string"
            },
            {
              "internalType": "address",
              "name": "tenant_public_key",
              "type": "address"
            },
            {
              "internalType": "address",
              "name": "landlord_public_key",
              "type": "address"
            },
            {
              "internalType": "enum RentalHomeContract.ContractState",
              "name": "state",
              "type": "uint8"
            },
            {
              "internalType": "bool",
              "name": "tenantSigned",
              "type": "bool"
            },
            {
              "internalType": "bool",
              "name": "landlordSigned",
              "type": "bool"
            }
          ],
          "internalType": "struct RentalHomeContract.RentalAgreement[]",
          "name": "",
          "type": "tuple[]"
        }
      ],
      "stateMutability": "view",
      "type": "function",
      "constant": true
    },
    {
      "inputs": [
        {
          "internalType": "address",
          "name": "_tenant_public_key",
          "type": "address"
        },
        {
          "internalType": "uint256",
          "name": "_index",
          "type": "uint256"
        }
      ],
      "name": "getContractState",
      "outputs": [
        {
          "internalType": "enum RentalHomeContract.ContractState",
          "name": "",
          "type": "uint8"
        }
      ],
      "stateMutability": "view",
      "type": "function",
      "constant": true
    }
  ],
  "bytecode": "0x608060405234801561001057600080fd5b50612ebc806100206000396000f3fe608060405234801561001057600080fd5b50600436106100935760003560e01c8063917acfe311610066578063917acfe31461014f5780639e6fffec1461016b578063dac3d364146101a6578063e5eeca58146101c2578063fc281eea146101de57610093565b806323b83cdf146100985780632ec2b05b146100c857806382ddaee8146100e45780638a0b66a214610114575b600080fd5b6100b260048036038101906100ad91906120e5565b61020e565b6040516100bf919061219c565b60405180910390f35b6100e260048036038101906100dd91906120e5565b610287565b005b6100fe60048036038101906100f991906121b7565b610429565b60405161010b919061249e565b60405180910390f35b61012e600480360381019061012991906120e5565b6108d3565b6040516101469c9b9a99989796959493929190612537565b60405180910390f35b610169600480360381019061016491906120e5565b610c5f565b005b610185600480360381019061018091906120e5565b610e26565b60405161019d9c9b9a99989796959493929190612537565b60405180910390f35b6101c060048036038101906101bb91906120e5565b6111b2565b005b6101dc60048036038101906101d79190612749565b611351565b005b6101f860048036038101906101f391906121b7565b6117d5565b604051610205919061249e565b60405180910390f35b60008060008473ffffffffffffffffffffffffffffffffffffffff1673ffffffffffffffffffffffffffffffffffffffff16815260200190815260200160002082815481106102605761025f61289f565b5b906000526020600020906009020160080160149054906101000a900460ff16905092915050565b60008060008473ffffffffffffffffffffffffffffffffffffffff1673ffffffffffffffffffffffffffffffffffffffff16815260200190815260200160002082815481106102d9576102d861289f565b5b906000526020600020906009020190503373ffffffffffffffffffffffffffffffffffffffff168160070160009054906101000a900473ffffffffffffffffffffffffffffffffffffffff1673ffffffffffffffffffffffffffffffffffffffff161461037b576040517f08c379a000000000000000000000000000000000000000000000000000000000815260040161037290612940565b60405180910390fd5b6000600281111561038f5761038e612125565b5b8160080160149054906101000a900460ff1660028111156103b3576103b2612125565b5b146103f3576040517f08c379a00000000000000000000000000000000000000000000000000000000081526004016103ea906129d2565b60405180910390fd5b60018160080160156101000a81548160ff02191690831515021790555061041a8383611c7e565b6104248383611d8e565b505050565b6060600160008373ffffffffffffffffffffffffffffffffffffffff1673ffffffffffffffffffffffffffffffffffffffff168152602001908152602001600020805480602002602001604051908101604052809291908181526020016000905b828210156108c857838290600052602060002090600902016040518061018001604052908160008201548152602001600182015481526020016002820180546104d290612a21565b80601f01602080910402602001604051908101604052809291908181526020018280546104fe90612a21565b801561054b5780601f106105205761010080835404028352916020019161054b565b820191906000526020600020905b81548152906001019060200180831161052e57829003601f168201915b5050505050815260200160038201805461056490612a21565b80601f016020809104026020016040519081016040528092919081815260200182805461059090612a21565b80156105dd5780601f106105b2576101008083540402835291602001916105dd565b820191906000526020600020905b8154815290600101906020018083116105c057829003601f168201915b505050505081526020016004820180546105f690612a21565b80601f016020809104026020016040519081016040528092919081815260200182805461062290612a21565b801561066f5780601f106106445761010080835404028352916020019161066f565b820191906000526020600020905b81548152906001019060200180831161065257829003601f168201915b5050505050815260200160058201805461068890612a21565b80601f01602080910402602001604051908101604052809291908181526020018280546106b490612a21565b80156107015780601f106106d657610100808354040283529160200191610701565b820191906000526020600020905b8154815290600101906020018083116106e457829003601f168201915b5050505050815260200160068201805461071a90612a21565b80601f016020809104026020016040519081016040528092919081815260200182805461074690612a21565b80156107935780601f1061076857610100808354040283529160200191610793565b820191906000526020600020905b81548152906001019060200180831161077657829003601f168201915b505050505081526020016007820160009054906101000a900473ffffffffffffffffffffffffffffffffffffffff1673ffffffffffffffffffffffffffffffffffffffff1673ffffffffffffffffffffffffffffffffffffffff1681526020016008820160009054906101000a900473ffffffffffffffffffffffffffffffffffffffff1673ffffffffffffffffffffffffffffffffffffffff1673ffffffffffffffffffffffffffffffffffffffff1681526020016008820160149054906101000a900460ff16600281111561086d5761086c612125565b5b600281111561087f5761087e612125565b5b81526020016008820160159054906101000a900460ff161515151581526020016008820160169054906101000a900460ff1615151515815250508152602001906001019061048a565b505050509050919050565b600160205281600052604060002081815481106108ef57600080fd5b90600052602060002090600902016000915091505080600001549080600101549080600201805461091f90612a21565b80601f016020809104026020016040519081016040528092919081815260200182805461094b90612a21565b80156109985780601f1061096d57610100808354040283529160200191610998565b820191906000526020600020905b81548152906001019060200180831161097b57829003601f168201915b5050505050908060030180546109ad90612a21565b80601f01602080910402602001604051908101604052809291908181526020018280546109d990612a21565b8015610a265780601f106109fb57610100808354040283529160200191610a26565b820191906000526020600020905b815481529060010190602001808311610a0957829003601f168201915b505050505090806004018054610a3b90612a21565b80601f0160208091040260200160405190810160405280929190818152602001828054610a6790612a21565b8015610ab45780601f10610a8957610100808354040283529160200191610ab4565b820191906000526020600020905b815481529060010190602001808311610a9757829003601f168201915b505050505090806005018054610ac990612a21565b80601f0160208091040260200160405190810160405280929190818152602001828054610af590612a21565b8015610b425780601f10610b1757610100808354040283529160200191610b42565b820191906000526020600020905b815481529060010190602001808311610b2557829003601f168201915b505050505090806006018054610b5790612a21565b80601f0160208091040260200160405190810160405280929190818152602001828054610b8390612a21565b8015610bd05780601f10610ba557610100808354040283529160200191610bd0565b820191906000526020600020905b815481529060010190602001808311610bb357829003601f168201915b5050505050908060070160009054906101000a900473ffffffffffffffffffffffffffffffffffffffff16908060080160009054906101000a900473ffffffffffffffffffffffffffffffffffffffff16908060080160149054906101000a900460ff16908060080160159054906101000a900460ff16908060080160169054906101000a900460ff1690508c565b6000600160008473ffffffffffffffffffffffffffffffffffffffff1673ffffffffffffffffffffffffffffffffffffffff1681526020019081526020016000208281548110610cb257610cb161289f565b5b906000526020600020906009020190503373ffffffffffffffffffffffffffffffffffffffff168160080160009054906101000a900473ffffffffffffffffffffffffffffffffffffffff1673ffffffffffffffffffffffffffffffffffffffff1614610d54576040517f08c379a0000000000000000000000000000000000000000000000000000000008152600401610d4b90612ac4565b60405180910390fd5b60006002811115610d6857610d67612125565b5b8160080160149054906101000a900460ff166002811115610d8c57610d8b612125565b5b14610dcc576040517f08c379a0000000000000000000000000000000000000000000000000000000008152600401610dc3906129d2565b60405180910390fd5b60018160080160166101000a81548160ff021916908315150217905550610df38383611f09565b610e218160070160009054906101000a900473ffffffffffffffffffffffffffffffffffffffff1683611d8e565b505050565b60006020528160005260406000208181548110610e4257600080fd5b906000526020600020906009020160009150915050806000015490806001015490806002018054610e7290612a21565b80601f0160208091040260200160405190810160405280929190818152602001828054610e9e90612a21565b8015610eeb5780601f10610ec057610100808354040283529160200191610eeb565b820191906000526020600020905b815481529060010190602001808311610ece57829003601f168201915b505050505090806003018054610f0090612a21565b80601f0160208091040260200160405190810160405280929190818152602001828054610f2c90612a21565b8015610f795780601f10610f4e57610100808354040283529160200191610f79565b820191906000526020600020905b815481529060010190602001808311610f5c57829003601f168201915b505050505090806004018054610f8e90612a21565b80601f0160208091040260200160405190810160405280929190818152602001828054610fba90612a21565b80156110075780601f10610fdc57610100808354040283529160200191611007565b820191906000526020600020905b815481529060010190602001808311610fea57829003601f168201915b50505050509080600501805461101c90612a21565b80601f016020809104026020016040519081016040528092919081815260200182805461104890612a21565b80156110955780601f1061106a57610100808354040283529160200191611095565b820191906000526020600020905b81548152906001019060200180831161107857829003601f168201915b5050505050908060060180546110aa90612a21565b80601f01602080910402602001604051908101604052809291908181526020018280546110d690612a21565b80156111235780601f106110f857610100808354040283529160200191611123565b820191906000526020600020905b81548152906001019060200180831161110657829003601f168201915b5050505050908060070160009054906101000a900473ffffffffffffffffffffffffffffffffffffffff16908060080160009054906101000a900473ffffffffffffffffffffffffffffffffffffffff16908060080160149054906101000a900460ff16908060080160159054906101000a900460ff16908060080160169054906101000a900460ff1690508c565b6000600160008473ffffffffffffffffffffffffffffffffffffffff1673ffffffffffffffffffffffffffffffffffffffff16815260200190815260200160002082815481106112055761120461289f565b5b906000526020600020906009020190503373ffffffffffffffffffffffffffffffffffffffff168160080160009054906101000a900473ffffffffffffffffffffffffffffffffffffffff1673ffffffffffffffffffffffffffffffffffffffff16146112a7576040517f08c379a000000000000000000000000000000000000000000000000000000000815260040161129e90612b56565b60405180910390fd5b600160028111156112bb576112ba612125565b5b8160080160149054906101000a900460ff1660028111156112df576112de612125565b5b1461131f576040517f08c379a000000000000000000000000000000000000000000000000000000000815260040161131690612be8565b60405180910390fd5b60028160080160146101000a81548160ff0219169083600281111561134757611346612125565b5b0217905550505050565b60006040518061018001604052808b81526020018a81526020018981526020018881526020018781526020018681526020018581526020018473ffffffffffffffffffffffffffffffffffffffff1681526020018373ffffffffffffffffffffffffffffffffffffffff168152602001600060028111156113d5576113d4612125565b5b81526020016000151581526020016000151581525090506000808473ffffffffffffffffffffffffffffffffffffffff1673ffffffffffffffffffffffffffffffffffffffff1681526020019081526020016000208190806001815401808255809150506001900390600052602060002090600902016000909190919091506000820151816000015560208201518160010155604082015181600201908161147d9190612db4565b5060608201518160030190816114939190612db4565b5060808201518160040190816114a99190612db4565b5060a08201518160050190816114bf9190612db4565b5060c08201518160060190816114d59190612db4565b5060e08201518160070160006101000a81548173ffffffffffffffffffffffffffffffffffffffff021916908373ffffffffffffffffffffffffffffffffffffffff1602179055506101008201518160080160006101000a81548173ffffffffffffffffffffffffffffffffffffffff021916908373ffffffffffffffffffffffffffffffffffffffff1602179055506101208201518160080160146101000a81548160ff0219169083600281111561159157611590612125565b5b02179055506101408201518160080160156101000a81548160ff0219169083151502179055506101608201518160080160166101000a81548160ff0219169083151502179055505050600160008373ffffffffffffffffffffffffffffffffffffffff1673ffffffffffffffffffffffffffffffffffffffff1681526020019081526020016000208190806001815401808255809150506001900390600052602060002090600902016000909190919091506000820151816000015560208201518160010155604082015181600201908161166c9190612db4565b5060608201518160030190816116829190612db4565b5060808201518160040190816116989190612db4565b5060a08201518160050190816116ae9190612db4565b5060c08201518160060190816116c49190612db4565b5060e08201518160070160006101000a81548173ffffffffffffffffffffffffffffffffffffffff021916908373ffffffffffffffffffffffffffffffffffffffff1602179055506101008201518160080160006101000a81548173ffffffffffffffffffffffffffffffffffffffff021916908373ffffffffffffffffffffffffffffffffffffffff1602179055506101208201518160080160146101000a81548160ff021916908360028111156117805761177f612125565b5b02179055506101408201518160080160156101000a81548160ff0219169083151502179055506101608201518160080160166101000a81548160ff021916908315150217905550505050505050505050505050565b60606000808373ffffffffffffffffffffffffffffffffffffffff1673ffffffffffffffffffffffffffffffffffffffff168152602001908152602001600020805480602002602001604051908101604052809291908181526020016000905b82821015611c73578382906000526020600020906009020160405180610180016040529081600082015481526020016001820154815260200160028201805461187d90612a21565b80601f01602080910402602001604051908101604052809291908181526020018280546118a990612a21565b80156118f65780601f106118cb576101008083540402835291602001916118f6565b820191906000526020600020905b8154815290600101906020018083116118d957829003601f168201915b5050505050815260200160038201805461190f90612a21565b80601f016020809104026020016040519081016040528092919081815260200182805461193b90612a21565b80156119885780601f1061195d57610100808354040283529160200191611988565b820191906000526020600020905b81548152906001019060200180831161196b57829003601f168201915b505050505081526020016004820180546119a190612a21565b80601f01602080910402602001604051908101604052809291908181526020018280546119cd90612a21565b8015611a1a5780601f106119ef57610100808354040283529160200191611a1a565b820191906000526020600020905b8154815290600101906020018083116119fd57829003601f168201915b50505050508152602001600582018054611a3390612a21565b80601f0160208091040260200160405190810160405280929190818152602001828054611a5f90612a21565b8015611aac5780601f10611a8157610100808354040283529160200191611aac565b820191906000526020600020905b815481529060010190602001808311611a8f57829003601f168201915b50505050508152602001600682018054611ac590612a21565b80601f0160208091040260200160405190810160405280929190818152602001828054611af190612a21565b8015611b3e5780601f10611b1357610100808354040283529160200191611b3e565b820191906000526020600020905b815481529060010190602001808311611b2157829003601f168201915b505050505081526020016007820160009054906101000a900473ffffffffffffffffffffffffffffffffffffffff1673ffffffffffffffffffffffffffffffffffffffff1673ffffffffffffffffffffffffffffffffffffffff1681526020016008820160009054906101000a900473ffffffffffffffffffffffffffffffffffffffff1673ffffffffffffffffffffffffffffffffffffffff1673ffffffffffffffffffffffffffffffffffffffff1681526020016008820160149054906101000a900460ff166002811115611c1857611c17612125565b5b6002811115611c2a57611c29612125565b5b81526020016008820160159054906101000a900460ff161515151581526020016008820160169054906101000a900460ff16151515158152505081526020019060010190611835565b505050509050919050565b6000600160008060008673ffffffffffffffffffffffffffffffffffffffff1673ffffffffffffffffffffffffffffffffffffffff1681526020019081526020016000208481548110611cd457611cd361289f565b5b906000526020600020906009020160080160009054906101000a900473ffffffffffffffffffffffffffffffffffffffff1673ffffffffffffffffffffffffffffffffffffffff1673ffffffffffffffffffffffffffffffffffffffff1681526020019081526020016000208281548110611d5257611d5161289f565b5b9060005260206000209060090201905060018160080160156101000a81548160ff021916908315150217905550611d898383611d8e565b505050565b60008060008473ffffffffffffffffffffffffffffffffffffffff1673ffffffffffffffffffffffffffffffffffffffff1681526020019081526020016000208281548110611de057611ddf61289f565b5b906000526020600020906009020190508060080160159054906101000a900460ff168015611e1c57508060080160169054906101000a900460ff165b15611f045760018160080160146101000a81548160ff02191690836002811115611e4957611e48612125565b5b02179055506000600160008360080160009054906101000a900473ffffffffffffffffffffffffffffffffffffffff1673ffffffffffffffffffffffffffffffffffffffff1673ffffffffffffffffffffffffffffffffffffffff1681526020019081526020016000208381548110611ec557611ec461289f565b5b9060005260206000209060090201905060018160080160146101000a81548160ff02191690836002811115611efd57611efc612125565b5b0217905550505b505050565b6000806000600160008673ffffffffffffffffffffffffffffffffffffffff1673ffffffffffffffffffffffffffffffffffffffff1681526020019081526020016000208481548110611f5f57611f5e61289f565b5b906000526020600020906009020160070160009054906101000a900473ffffffffffffffffffffffffffffffffffffffff1673ffffffffffffffffffffffffffffffffffffffff1673ffffffffffffffffffffffffffffffffffffffff1681526020019081526020016000208281548110611fdd57611fdc61289f565b5b9060005260206000209060090201905060018160080160166101000a81548160ff0219169083151502179055506120388160070160009054906101000a900473ffffffffffffffffffffffffffffffffffffffff1683611d8e565b505050565b6000604051905090565b600080fd5b600080fd5b600073ffffffffffffffffffffffffffffffffffffffff82169050919050565b600061207c82612051565b9050919050565b61208c81612071565b811461209757600080fd5b50565b6000813590506120a981612083565b92915050565b6000819050919050565b6120c2816120af565b81146120cd57600080fd5b50565b6000813590506120df816120b9565b92915050565b600080604083850312156120fc576120fb612047565b5b600061210a8582860161209a565b925050602061211b858286016120d0565b9150509250929050565b7f4e487b7100000000000000000000000000000000000000000000000000000000600052602160045260246000fd5b6003811061216557612164612125565b5b50565b600081905061217682612154565b919050565b600061218682612168565b9050919050565b6121968161217b565b82525050565b60006020820190506121b1600083018461218d565b92915050565b6000602082840312156121cd576121cc612047565b5b60006121db8482850161209a565b91505092915050565b600081519050919050565b600082825260208201905092915050565b6000819050602082019050919050565b612219816120af565b82525050565b600081519050919050565b600082825260208201905092915050565b60005b8381101561225957808201518184015260208101905061223e565b60008484015250505050565b6000601f19601f8301169050919050565b60006122818261221f565b61228b818561222a565b935061229b81856020860161223b565b6122a481612265565b840191505092915050565b6122b881612071565b82525050565b6122c78161217b565b82525050565b60008115159050919050565b6122e2816122cd565b82525050565b6000610180830160008301516123016000860182612210565b5060208301516123146020860182612210565b506040830151848203604086015261232c8282612276565b915050606083015184820360608601526123468282612276565b915050608083015184820360808601526123608282612276565b91505060a083015184820360a086015261237a8282612276565b91505060c083015184820360c08601526123948282612276565b91505060e08301516123a960e08601826122af565b506101008301516123be6101008601826122af565b506101208301516123d36101208601826122be565b506101408301516123e86101408601826122d9565b506101608301516123fd6101608601826122d9565b508091505092915050565b600061241483836122e8565b905092915050565b6000602082019050919050565b6000612434826121e4565b61243e81856121ef565b93508360208202850161245085612200565b8060005b8581101561248c578484038952815161246d8582612408565b94506124788361241c565b925060208a01995050600181019050612454565b50829750879550505050505092915050565b600060208201905081810360008301526124b88184612429565b905092915050565b6124c9816120af565b82525050565b600082825260208201905092915050565b60006124eb8261221f565b6124f581856124cf565b935061250581856020860161223b565b61250e81612265565b840191505092915050565b61252281612071565b82525050565b612531816122cd565b82525050565b60006101808201905061254d600083018f6124c0565b61255a602083018e6124c0565b818103604083015261256c818d6124e0565b90508181036060830152612580818c6124e0565b90508181036080830152612594818b6124e0565b905081810360a08301526125a8818a6124e0565b905081810360c08301526125bc81896124e0565b90506125cb60e0830188612519565b6125d9610100830187612519565b6125e761012083018661218d565b6125f5610140830185612528565b612603610160830184612528565b9d9c50505050505050505050505050565b600080fd5b600080fd5b7f4e487b7100000000000000000000000000000000000000000000000000000000600052604160045260246000fd5b61265682612265565b810181811067ffffffffffffffff821117156126755761267461261e565b5b80604052505050565b600061268861203d565b9050612694828261264d565b919050565b600067ffffffffffffffff8211156126b4576126b361261e565b5b6126bd82612265565b9050602081019050919050565b82818337600083830152505050565b60006126ec6126e784612699565b61267e565b90508281526020810184848401111561270857612707612619565b5b6127138482856126ca565b509392505050565b600082601f8301126127305761272f612614565b5b81356127408482602086016126d9565b91505092915050565b60008060008060008060008060006101208a8c03121561276c5761276b612047565b5b600061277a8c828d016120d0565b995050602061278b8c828d016120d0565b98505060408a013567ffffffffffffffff8111156127ac576127ab61204c565b5b6127b88c828d0161271b565b97505060608a013567ffffffffffffffff8111156127d9576127d861204c565b5b6127e58c828d0161271b565b96505060808a013567ffffffffffffffff8111156128065761280561204c565b5b6128128c828d0161271b565b95505060a08a013567ffffffffffffffff8111156128335761283261204c565b5b61283f8c828d0161271b565b94505060c08a013567ffffffffffffffff8111156128605761285f61204c565b5b61286c8c828d0161271b565b93505060e061287d8c828d0161209a565b92505061010061288f8c828d0161209a565b9150509295985092959850929598565b7f4e487b7100000000000000000000000000000000000000000000000000000000600052603260045260246000fd5b7f4f6e6c79207468652074656e616e742063616e207369676e207468697320636f60008201527f6e74726163742e00000000000000000000000000000000000000000000000000602082015250565b600061292a6027836124cf565b9150612935826128ce565b604082019050919050565b600060208201905081810360008301526129598161291d565b9050919050565b7f436f6e7472616374206973206e6f7420696e2074686520636f7272656374207360008201527f7461746520746f207369676e2e00000000000000000000000000000000000000602082015250565b60006129bc602d836124cf565b91506129c782612960565b604082019050919050565b600060208201905081810360008301526129eb816129af565b9050919050565b7f4e487b7100000000000000000000000000000000000000000000000000000000600052602260045260246000fd5b60006002820490506001821680612a3957607f821691505b602082108103612a4c57612a4b6129f2565b5b50919050565b7f4f6e6c7920746865206c616e646c6f72642063616e207369676e20746869732060008201527f636f6e74726163742e0000000000000000000000000000000000000000000000602082015250565b6000612aae6029836124cf565b9150612ab982612a52565b604082019050919050565b60006020820190508181036000830152612add81612aa1565b9050919050565b7f4f6e6c7920746865206c616e646c6f72642063616e207465726d696e6174652060008201527f7468697320636f6e74726163742e000000000000000000000000000000000000602082015250565b6000612b40602e836124cf565b9150612b4b82612ae4565b604082019050919050565b60006020820190508181036000830152612b6f81612b33565b9050919050565b7f436f6e7472616374206d757374206265207374617274656420746f207465726d60008201527f696e6174652e0000000000000000000000000000000000000000000000000000602082015250565b6000612bd26026836124cf565b9150612bdd82612b76565b604082019050919050565b60006020820190508181036000830152612c0181612bc5565b9050919050565b60008190508160005260206000209050919050565b60006020601f8301049050919050565b600082821b905092915050565b600060088302612c6a7fffffffffffffffffffffffffffffffffffffffffffffffffffffffffffffffff82612c2d565b612c748683612c2d565b95508019841693508086168417925050509392505050565b6000819050919050565b6000612cb1612cac612ca7846120af565b612c8c565b6120af565b9050919050565b6000819050919050565b612ccb83612c96565b612cdf612cd782612cb8565b848454612c3a565b825550505050565b600090565b612cf4612ce7565b612cff818484612cc2565b505050565b5b81811015612d2357612d18600082612cec565b600181019050612d05565b5050565b601f821115612d6857612d3981612c08565b612d4284612c1d565b81016020851015612d51578190505b612d65612d5d85612c1d565b830182612d04565b50505b505050565b600082821c905092915050565b6000612d8b60001984600802612d6d565b1980831691505092915050565b6000612da48383612d7a565b9150826002028217905092915050565b612dbd8261221f565b67ffffffffffffffff811115612dd657612dd561261e565b5b612de08254612a21565b612deb828285612d27565b600060209050601f831160018114612e1e5760008415612e0c578287015190505b612e168582612d98565b865550612e7e565b601f198416612e2c86612c08565b60005b82811015612e5457848901518255600182019150602085019450602081019050612e2f565b86831015612e715784890151612e6d601f891682612d7a565b8355505b6001600288020188555050505b50505050505056fea264697066735822122063f7a74e4ea7205d12f9fc8a56b0b61196c2921b503b5c8ade3d361f414f6f9d64736f6c63430008130033",
  "immutableReferences": {},
  "source": "// SPDX-License-Identifier: MIT\r\npragma solidity ^0.8.0;\r\n\r\ncontract RentalHomeContract {\r\n\r\n    enum ContractState { CREATED, STARTED, TERMINATED }\r\n\r\n    struct RentalAgreement {\r\n        uint256 home_id;\r\n        uint256 price;\r\n        string price_type;\r\n        string tenant_mobile;\r\n        string tenant_national_code;\r\n        string landlord_mobile;\r\n        string landlord_national_code;\r\n        address tenant_public_key;\r\n        address landlord_public_key;\r\n        ContractState state;\r\n        bool tenantSigned;\r\n        bool landlordSigned;\r\n    }\r\n\r\n    mapping(address => RentalAgreement[]) public tenantAgreements;\r\n    mapping(address => RentalAgreement[]) public landlordAgreements;\r\n\r\n    function setRentalAgreement(\r\n        uint256 _home_id,\r\n        uint256 _price,\r\n        string memory _price_type,\r\n        string memory _tenant_mobile,\r\n        string memory _tenant_national_code,\r\n        string memory _landlord_mobile,\r\n        string memory _landlord_national_code,\r\n        address _tenant_public_key,\r\n        address _landlord_public_key\r\n    ) public {\r\n        RentalAgreement memory agreement = RentalAgreement(\r\n            _home_id,\r\n            _price,\r\n            _price_type,\r\n            _tenant_mobile,\r\n            _tenant_national_code,\r\n            _landlord_mobile,\r\n            _landlord_national_code,\r\n            _tenant_public_key,\r\n            _landlord_public_key,\r\n            ContractState.CREATED,  // Initial state is CREATED\r\n            false,  // tenant has not signed yet\r\n            false   // landlord has not signed yet\r\n        );\r\n\r\n        tenantAgreements[_tenant_public_key].push(agreement);\r\n        landlordAgreements[_landlord_public_key].push(agreement);\r\n    }\r\n\r\n    function signContractAsTenant(address _tenant_public_key, uint256 _index) public {\r\n        RentalAgreement storage agreement = tenantAgreements[_tenant_public_key][_index];\r\n        require(agreement.tenant_public_key == msg.sender, \"Only the tenant can sign this contract.\");\r\n        require(agreement.state == ContractState.CREATED, \"Contract is not in the correct state to sign.\");\r\n        \r\n        agreement.tenantSigned = true;\r\n        \r\n        updateLandlordAgreement(_tenant_public_key, _index);\r\n        \r\n        checkAndStartContract(_tenant_public_key, _index);\r\n    }\r\n\r\n    function updateLandlordAgreement(address _tenant_public_key, uint256 _index) internal {\r\n        RentalAgreement storage agreement = landlordAgreements[tenantAgreements[_tenant_public_key][_index].landlord_public_key][_index];\r\n        agreement.tenantSigned = true;\r\n        checkAndStartContract(_tenant_public_key, _index);\r\n    }\r\n\r\n    function signContractAsLandlord(address _landlord_public_key, uint256 _index) public {\r\n        RentalAgreement storage agreement = landlordAgreements[_landlord_public_key][_index];\r\n        require(agreement.landlord_public_key == msg.sender, \"Only the landlord can sign this contract.\");\r\n        require(agreement.state == ContractState.CREATED, \"Contract is not in the correct state to sign.\");\r\n\r\n        agreement.landlordSigned = true;\r\n        \r\n        updateTenantAgreement(_landlord_public_key, _index);\r\n        \r\n        checkAndStartContract(agreement.tenant_public_key, _index);\r\n    }\r\n\r\n    function updateTenantAgreement(address _landlord_public_key, uint256 _index) internal {\r\n        RentalAgreement storage agreement = tenantAgreements[landlordAgreements[_landlord_public_key][_index].tenant_public_key][_index];\r\n        agreement.landlordSigned = true;\r\n        checkAndStartContract(agreement.tenant_public_key, _index);\r\n    }\r\n\r\n   function checkAndStartContract(address _tenant_public_key, uint256 _index) internal {\r\n    RentalAgreement storage agreement = tenantAgreements[_tenant_public_key][_index];\r\n    if (agreement.tenantSigned && agreement.landlordSigned) {\r\n        agreement.state = ContractState.STARTED;\r\n\r\n        RentalAgreement storage landlordAgreement = landlordAgreements[agreement.landlord_public_key][_index];\r\n        landlordAgreement.state = ContractState.STARTED;\r\n    }\r\n}\r\n\r\n    function terminateContractAsLandlord(address _landlord_public_key, uint256 _index) public {\r\n        RentalAgreement storage agreement = landlordAgreements[_landlord_public_key][_index];\r\n        require(agreement.landlord_public_key == msg.sender, \"Only the landlord can terminate this contract.\");\r\n        require(agreement.state == ContractState.STARTED, \"Contract must be started to terminate.\");\r\n\r\n        agreement.state = ContractState.TERMINATED;\r\n    }\r\n\r\n    function getAgreementsByTenant(address _tenantPublicKey) public view returns (RentalAgreement[] memory) {\r\n        return tenantAgreements[_tenantPublicKey];\r\n    }\r\n\r\n    function getAgreementsByLandlord(address _landlordPublicKey) public view returns (RentalAgreement[] memory) {\r\n        return landlordAgreements[_landlordPublicKey];\r\n    }\r\n\r\n    function getContractState(address _tenant_public_key, uint256 _index) public view returns (ContractState) {\r\n        return tenantAgreements[_tenant_public_key][_index].state;\r\n    }\r\n}",
  "sourcePath": "E:\\project\\RentalHomeContract\\contracts\\RentalHomeContract.sol",
  "compiler": {
    "name": "solc",
    "version": "0.8.19+commit.7dd6d404.Emscripten.clang"
  },
  "schemaVersion": "3.4.16",
  "updatedAt": "2024-09-06T21:11:09.800Z",
  "networkType": "ethereum",
  "devdoc": {
    "kind": "dev",
    "methods": {},
    "version": 1
  },
  "userdoc": {
    "kind": "user",
    "methods": {},
    "version": 1
  }
}